{
  "_format": "hh-sol-artifact-1",
  "contractName": "bbFixICO",
  "sourceName": "contracts/bbFixICO.sol",
  "abi": [
    {
      "inputs": [
        {
          "internalType": "address",
          "name": "base",
          "type": "address"
        },
        {
          "internalType": "address",
          "name": "quote",
          "type": "address"
        }
      ],
      "stateMutability": "nonpayable",
      "type": "constructor"
    },
    {
      "inputs": [],
      "name": "AccessControlBadConfirmation",
      "type": "error"
    },
    {
      "inputs": [
        {
          "internalType": "address",
          "name": "account",
          "type": "address"
        },
        {
          "internalType": "bytes32",
          "name": "neededRole",
          "type": "bytes32"
        }
      ],
      "name": "AccessControlUnauthorizedAccount",
      "type": "error"
    },
    {
      "inputs": [],
      "name": "InvalidBalance",
      "type": "error"
    },
    {
      "inputs": [],
      "name": "InvalidOperation",
      "type": "error"
    },
    {
      "inputs": [],
      "name": "InvalidParameters",
      "type": "error"
    },
    {
      "inputs": [],
      "name": "InvalidToken",
      "type": "error"
    },
    {
      "anonymous": false,
      "inputs": [
        {
          "indexed": true,
          "internalType": "bytes32",
          "name": "role",
          "type": "bytes32"
        },
        {
          "indexed": true,
          "internalType": "bytes32",
          "name": "previousAdminRole",
          "type": "bytes32"
        },
        {
          "indexed": true,
          "internalType": "bytes32",
          "name": "newAdminRole",
          "type": "bytes32"
        }
      ],
      "name": "RoleAdminChanged",
      "type": "event"
    },
    {
      "anonymous": false,
      "inputs": [
        {
          "indexed": true,
          "internalType": "bytes32",
          "name": "role",
          "type": "bytes32"
        },
        {
          "indexed": true,
          "internalType": "address",
          "name": "account",
          "type": "address"
        },
        {
          "indexed": true,
          "internalType": "address",
          "name": "sender",
          "type": "address"
        }
      ],
      "name": "RoleGranted",
      "type": "event"
    },
    {
      "anonymous": false,
      "inputs": [
        {
          "indexed": true,
          "internalType": "bytes32",
          "name": "role",
          "type": "bytes32"
        },
        {
          "indexed": true,
          "internalType": "address",
          "name": "account",
          "type": "address"
        },
        {
          "indexed": true,
          "internalType": "address",
          "name": "sender",
          "type": "address"
        }
      ],
      "name": "RoleRevoked",
      "type": "event"
    },
    {
      "inputs": [],
      "name": "DEFAULT_ADMIN_ROLE",
      "outputs": [
        {
          "internalType": "bytes32",
          "name": "",
          "type": "bytes32"
        }
      ],
      "stateMutability": "view",
      "type": "function"
    },
    {
      "inputs": [],
      "name": "DENOMINATOR",
      "outputs": [
        {
          "internalType": "uint256",
          "name": "",
          "type": "uint256"
        }
      ],
      "stateMutability": "view",
      "type": "function"
    },
    {
      "inputs": [],
      "name": "OPERATOR_ROLE",
      "outputs": [
        {
          "internalType": "bytes32",
          "name": "",
          "type": "bytes32"
        }
      ],
      "stateMutability": "view",
      "type": "function"
    },
    {
      "inputs": [],
      "name": "baseToken",
      "outputs": [
        {
          "internalType": "contract bbFix",
          "name": "",
          "type": "address"
        }
      ],
      "stateMutability": "view",
      "type": "function"
    },
    {
      "inputs": [
        {
          "internalType": "uint256",
          "name": "tokenId",
          "type": "uint256"
        }
      ],
      "name": "canInvest",
      "outputs": [
        {
          "internalType": "bool",
          "name": "",
          "type": "bool"
        }
      ],
      "stateMutability": "view",
      "type": "function"
    },
    {
      "inputs": [
        {
          "internalType": "uint256",
          "name": "tokenId",
          "type": "uint256"
        }
      ],
      "name": "canRedeem",
      "outputs": [
        {
          "internalType": "bool",
          "name": "",
          "type": "bool"
        }
      ],
      "stateMutability": "view",
      "type": "function"
    },
    {
      "inputs": [
        {
          "internalType": "uint256",
          "name": "tokenId",
          "type": "uint256"
        }
      ],
      "name": "canWidthdraw",
      "outputs": [
        {
          "internalType": "bool",
          "name": "",
          "type": "bool"
        }
      ],
      "stateMutability": "view",
      "type": "function"
    },
    {
      "inputs": [
        {
          "internalType": "uint256",
          "name": "tokenId",
          "type": "uint256"
        },
        {
          "internalType": "uint256",
          "name": "price",
          "type": "uint256"
        },
        {
          "internalType": "uint256",
          "name": "investmentStartDate",
          "type": "uint256"
        },
        {
          "internalType": "uint256",
          "name": "investmenEndDate",
          "type": "uint256"
        },
        {
          "internalType": "uint256",
          "name": "settlementDate",
          "type": "uint256"
        },
        {
          "internalType": "uint256",
          "name": "lowWatermark",
          "type": "uint256"
        },
        {
          "internalType": "uint256",
          "name": "highWatermark",
          "type": "uint256"
        }
      ],
      "name": "createPool",
      "outputs": [],
      "stateMutability": "nonpayable",
      "type": "function"
    },
    {
      "inputs": [
        {
          "internalType": "uint256",
          "name": "tokenId",
          "type": "uint256"
        },
        {
          "internalType": "uint256",
          "name": "amount",
          "type": "uint256"
        }
      ],
      "name": "depositReturns",
      "outputs": [],
      "stateMutability": "nonpayable",
      "type": "function"
    },
    {
      "inputs": [
        {
          "internalType": "bytes32",
          "name": "role",
          "type": "bytes32"
        }
      ],
      "name": "getRoleAdmin",
      "outputs": [
        {
          "internalType": "bytes32",
          "name": "",
          "type": "bytes32"
        }
      ],
      "stateMutability": "view",
      "type": "function"
    },
    {
      "inputs": [
        {
          "internalType": "bytes32",
          "name": "role",
          "type": "bytes32"
        },
        {
          "internalType": "address",
          "name": "account",
          "type": "address"
        }
      ],
      "name": "grantRole",
      "outputs": [],
      "stateMutability": "nonpayable",
      "type": "function"
    },
    {
      "inputs": [
        {
          "internalType": "bytes32",
          "name": "role",
          "type": "bytes32"
        },
        {
          "internalType": "address",
          "name": "account",
          "type": "address"
        }
      ],
      "name": "hasRole",
      "outputs": [
        {
          "internalType": "bool",
          "name": "",
          "type": "bool"
        }
      ],
      "stateMutability": "view",
      "type": "function"
    },
    {
      "inputs": [
        {
          "internalType": "uint256",
          "name": "tokenId",
          "type": "uint256"
        },
        {
          "internalType": "uint256",
          "name": "amount",
          "type": "uint256"
        }
      ],
      "name": "invest",
      "outputs": [],
      "stateMutability": "nonpayable",
      "type": "function"
    },
    {
      "inputs": [
        {
          "internalType": "uint256",
          "name": "tokenId",
          "type": "uint256"
        }
      ],
      "name": "pools",
      "outputs": [
        {
          "internalType": "uint256",
          "name": "price",
          "type": "uint256"
        },
        {
          "internalType": "uint256",
          "name": "investmentStartDate",
          "type": "uint256"
        },
        {
          "internalType": "uint256",
          "name": "investmenEndDate",
          "type": "uint256"
        },
        {
          "internalType": "uint256",
          "name": "settlementDate",
          "type": "uint256"
        },
        {
          "internalType": "uint256",
          "name": "lowWatermark",
          "type": "uint256"
        },
        {
          "internalType": "uint256",
          "name": "highWatermark",
          "type": "uint256"
        },
        {
          "internalType": "uint256",
          "name": "balance",
          "type": "uint256"
        },
        {
          "internalType": "uint256",
          "name": "supply",
          "type": "uint256"
        }
      ],
      "stateMutability": "view",
      "type": "function"
    },
    {
      "inputs": [],
      "name": "quoteToken",
      "outputs": [
        {
          "internalType": "contract ERC20",
          "name": "",
          "type": "address"
        }
      ],
      "stateMutability": "view",
      "type": "function"
    },
    {
      "inputs": [
        {
          "internalType": "uint256",
          "name": "tokenId",
          "type": "uint256"
        }
      ],
      "name": "redeem",
      "outputs": [],
      "stateMutability": "nonpayable",
      "type": "function"
    },
    {
      "inputs": [
        {
          "internalType": "bytes32",
          "name": "role",
          "type": "bytes32"
        },
        {
          "internalType": "address",
          "name": "callerConfirmation",
          "type": "address"
        }
      ],
      "name": "renounceRole",
      "outputs": [],
      "stateMutability": "nonpayable",
      "type": "function"
    },
    {
      "inputs": [
        {
          "internalType": "bytes32",
          "name": "role",
          "type": "bytes32"
        },
        {
          "internalType": "address",
          "name": "account",
          "type": "address"
        }
      ],
      "name": "revokeRole",
      "outputs": [],
      "stateMutability": "nonpayable",
      "type": "function"
    },
    {
      "inputs": [
        {
          "internalType": "bytes4",
          "name": "interfaceId",
          "type": "bytes4"
        }
      ],
      "name": "supportsInterface",
      "outputs": [
        {
          "internalType": "bool",
          "name": "",
          "type": "bool"
        }
      ],
      "stateMutability": "view",
      "type": "function"
    },
    {
      "inputs": [
        {
          "internalType": "uint256",
          "name": "tokenId",
          "type": "uint256"
        }
      ],
      "name": "withdrawFunds",
      "outputs": [],
      "stateMutability": "nonpayable",
      "type": "function"
    }
  ],
  "bytecode": "0x608060405234801561001057600080fd5b5060405161152038038061152083398101604081905261002f916100d3565b6001600160a01b038216158061004c57506001600160a01b038116155b806100685750806001600160a01b0316826001600160a01b0316145b1561008657604051630e52390960e41b815260040160405180910390fd5b600180546001600160a01b039384166001600160a01b03199182161790915560028054929093169116179055610106565b80516001600160a01b03811681146100ce57600080fd5b919050565b600080604083850312156100e657600080fd5b6100ef836100b7565b91506100fd602084016100b7565b90509250929050565b61140b806101156000396000f3fe608060405234801561001057600080fd5b506004361061012c5760003560e01c806391d14854116100ad578063d338e7b911610071578063d338e7b91461030a578063d547741f1461031d578063d87aa64314610330578063db006a7514610343578063f5b541a61461035657600080fd5b806391d1485414610238578063a217fddf1461024b578063ac4afa3814610253578063c3663968146102e4578063c55dae63146102f757600080fd5b80632f2ff15d116100f45780632f2ff15d146101dd57806336568abe146101f057806353894798146102035780638a94680f14610216578063918f86741461022957600080fd5b806301ffc9a714610131578063155dd5ee14610159578063217a4b701461016e57806321e5de9b14610199578063248a9ca3146101ac575b600080fd5b61014461013f366004611218565b61036b565b60405190151581526020015b60405180910390f35b61016c610167366004611242565b6103a2565b005b600254610181906001600160a01b031681565b6040516001600160a01b039091168152602001610150565b6101446101a7366004611242565b610559565b6101cf6101ba366004611242565b60009081526020819052604090206001015490565b604051908152602001610150565b61016c6101eb36600461125b565b6105da565b61016c6101fe36600461125b565b610605565b61016c610211366004611297565b61063d565b610144610224366004611242565b61080f565b6101cf670de0b6b3a764000081565b61014461024636600461125b565b610889565b6101cf600081565b6102a9610261366004611242565b60036020528060005260406000206000915090508060000154908060010154908060020154908060030154908060040154908060050154908060060154908060070154905088565b604080519889526020890197909752958701949094526060860192909252608085015260a084015260c083015260e082015261010001610150565b6101446102f2366004611242565b6108b2565b600154610181906001600160a01b031681565b61016c6103183660046112b9565b61092c565b61016c61032b36600461125b565b610a1e565b61016c61033e366004611297565b610a43565b61016c610351366004611242565b610cbc565b6101cf6000805160206113b683398151915281565b60006001600160e01b03198216637965db0b60e01b148061039c57506301ffc9a760e01b6001600160e01b03198316145b92915050565b6000805160206113b68339815191526103ba81611022565b6000828152600360208181526040928390208351610100810185528154815260018201549281019290925260028101549382019390935290820154606082015260048201546080820152600582015460a0820152600682015460c082015260079091015460e082015261042c8161102f565b428160400151101561045157604051631cc6a69960e11b815260040160405180910390fd5b80608001518160e00151101561047a5760405163c52e3eff60e01b815260040160405180910390fd5b60025460c082015160405163a9059cbb60e01b815233600482015260248101919091526001600160a01b039091169063a9059cbb906044016020604051808303816000875af11580156104d1573d6000803e3d6000fd5b505050506040513d601f19601f820116820180604052508101906104f59190611305565b50600060c0820181815293815260036020818152604092839020845181559084015160018201559183015160028301556060830151908201556080820151600482015560a082015160058201559251600684015560e0015160079092019190915550565b60008181526003602081815260408084208151610100810183528154815260018201549381019390935260028101549183019190915291820154606082015260048201546080820152600582015460a0820152600682015460c082015260079091015460e08201526105ca8161102f565b6105d381611051565b9392505050565b6000828152602081905260409020600101546105f581611022565b6105ff838361107e565b50505050565b6001600160a01b038116331461062e5760405163334bd91960e11b815260040160405180910390fd5b6106388282611110565b505050565b6000805160206113b683398151915261065581611022565b6000838152600360208181526040928390208351610100810185528154815260018201549281019290925260028101549382019390935290820154606082015260048201546080820152600582015460a0820152600682015460c082015260079091015460e08201526106c78161102f565b42816040015110156106ec57604051631cc6a69960e11b815260040160405180910390fd5b8060e00151838260c00151610701919061133d565b111561071e578060c001518160e0015161071b9190611350565b92505b6002546040516323b872dd60e01b8152336004820152306024820152604481018590526001600160a01b03909116906323b872dd906064016020604051808303816000875af1158015610775573d6000803e3d6000fd5b505050506040513d601f19601f820116820180604052508101906107999190611305565b50828160c0018181516107ac919061133d565b905250600093845260036020818152604095869020835181559083015160018201559482015160028601556060820151908501556080810151600485015560a0810151600585015560c0810151600685015560e001516007909301929092555050565b60008181526003602081815260408084208151610100810183528154815260018201549381019390935260028101549183019190915291820154606082015260048201546080820152600582015460a0820152600682015460c082015260079091015460e08201526108808161102f565b6105d38161117b565b6000918252602082815260408084206001600160a01b0393909316845291905290205460ff1690565b60008181526003602081815260408084208151610100810183528154815260018201549381019390935260028101549183019190915291820154606082015260048201546080820152600582015460a0820152600682015460c082015260079091015460e08201526109238161102f565b6105d3816111a9565b6000805160206113b683398151915261094481611022565b84861015806109535750838510155b8061095d57508183105b80610966575086155b806109795750670de0b6b3a76400008710155b1561099757604051630e52390960e41b815260040160405180910390fd5b5060408051610100810182529687526020808801968752878201958652606088019485526080880193845260a08801928352600060c0890181815260e08a018281529a825260039283905292902097518855955160018801559351600287015591519385019390935591516004840155905160058301555160068201559051600790910155565b600082815260208190526040902060010154610a3981611022565b6105ff8383611110565b6000828152600360208181526040928390208351610100810185528154815260018201549281019290925260028101549382019390935290820154606082015260048201546080820152600582015460a0820152600682015460c082015260079091015460e0820152610ab58161102f565b610abe816111a9565b610adb57604051631cc6a69960e11b815260040160405180910390fd5b8051600090670de0b6b3a764000090610af49085611363565b610afe919061137a565b90508160a00151818360e00151610b15919061133d565b1115610b32578160e001518260a00151610b2f9190611350565b90505b6002546040516323b872dd60e01b8152336004820152306024820152604481018590526001600160a01b03909116906323b872dd906064016020604051808303816000875af1158015610b89573d6000803e3d6000fd5b505050506040513d601f19601f82011682018060405250810190610bad9190611305565b50828260c001818151610bc0919061133d565b90525060015460405163731133e960e01b81523360048201526024810186905260448101839052608060648201526002608482015261060f60f31b60a48201526001600160a01b039091169063731133e99060c401600060405180830381600087803b158015610c2f57600080fd5b505af1158015610c43573d6000803e3d6000fd5b50505050808260e001818151610c59919061133d565b90525050600092835260036020818152604094859020835181559083015160018201559382015160028501556060820151908401556080810151600484015560a0810151600584015560c0810151600684015560e0015160079092019190915550565b6000818152600360208181526040928390208351610100810185528154815260018201549281019290925260028101549382019390935290820154606082015260048201546080820152600582015460a0820152600682015460c082015260079091015460e0820152610d2e8161102f565b610d378161117b565b610d5457604051631cc6a69960e11b815260040160405180910390fd5b600154604051627eeac760e11b8152336004820152602481018490526000916001600160a01b03169062fdd58e90604401602060405180830381865afa158015610da2573d6000803e3d6000fd5b505050506040513d601f19601f82011682018060405250810190610dc6919061139c565b9050801580610dd857508160c0015181115b15610df65760405163c52e3eff60e01b815260040160405180910390fd5b600154604051637921219560e11b8152336004820152306024820152604481018590526064810183905260a06084820152600260a482015261060f60f31b60c48201526001600160a01b039091169063f242432a9060e401600060405180830381600087803b158015610e6857600080fd5b505af1158015610e7c573d6000803e3d6000fd5b5050600154604051637a94c56560e11b815233600482015260248101879052604481018590526001600160a01b03909116925063f5298aca9150606401600060405180830381600087803b158015610ed357600080fd5b505af1158015610ee7573d6000803e3d6000fd5b50505050808260c001818151610efd9190611350565b90525060025460405163a9059cbb60e01b8152336004820152602481018390526001600160a01b039091169063a9059cbb906044016020604051808303816000875af1158015610f51573d6000803e3d6000fd5b505050506040513d601f19601f82011682018060405250810190610f759190611305565b508160c00151600003610fc657505060009081526003602081905260408220828155600181018390556002810183905590810182905560048101829055600581018290556006810182905560070155565b50600091825260036020818152604093849020835181559083015160018201559282015160028401556060820151908301556080810151600483015560a0810151600583015560c0810151600683015560e00151600790910155565b61102c81336111d7565b50565b805160000361102c5760405163c1ab6dc160e01b815260040160405180910390fd5b6000808260c0015111801561106d575081608001518260e00151105b801561039c57505060400151421190565b600061108a8383610889565b611108576000838152602081815260408083206001600160a01b03861684529091529020805460ff191660011790556110c03390565b6001600160a01b0316826001600160a01b0316847f2f8788117e7eff1d82e926ec794901d17c78024a50270940304540a733656f0d60405160405180910390a450600161039c565b50600061039c565b600061111c8383610889565b15611108576000838152602081815260408083206001600160a01b0386168085529252808320805460ff1916905551339286917ff6391f5c32d9c69d2a47ea670b442974b53935d1edc7fd64eb21e047a839171b9190a450600161039c565b6000808260c00151118015611198575081608001518260e0015110155b801561039c57505060600151421190565b60008160a001518260e001511080156111c55750816040015142105b801561039c5750506020015142101590565b6111e18282610889565b6112145760405163e2517d3f60e01b81526001600160a01b03821660048201526024810183905260440160405180910390fd5b5050565b60006020828403121561122a57600080fd5b81356001600160e01b0319811681146105d357600080fd5b60006020828403121561125457600080fd5b5035919050565b6000806040838503121561126e57600080fd5b8235915060208301356001600160a01b038116811461128c57600080fd5b809150509250929050565b600080604083850312156112aa57600080fd5b50508035926020909101359150565b600080600080600080600060e0888a0312156112d457600080fd5b505085359760208701359750604087013596606081013596506080810135955060a0810135945060c0013592509050565b60006020828403121561131757600080fd5b815180151581146105d357600080fd5b634e487b7160e01b600052601160045260246000fd5b8082018082111561039c5761039c611327565b8181038181111561039c5761039c611327565b808202811582820484141761039c5761039c611327565b60008261139757634e487b7160e01b600052601260045260246000fd5b500490565b6000602082840312156113ae57600080fd5b505191905056fe97667070c54ef182b0f5858b034beac1b6f3089aa2d3188bb1e8929f4fa9b929a2646970667358221220d1b88ca1d1e6c7ea2634d40cbf078f6837b765e14188a5689efa2045c09e9e9664736f6c634300081b0033",
  "linkReferences": {},
  "deployedLinkReferences": {}
}