{
  "_format": "hh-sol-artifact-1",
  "contractName": "Faucet",
  "sourceName": "contracts/bbUSDFaucet.sol",
  "abi": [
    {
      "inputs": [
        {
          "internalType": "address",
          "name": "_tokenInstance",
          "type": "address"
        }
      ],
      "stateMutability": "nonpayable",
      "type": "constructor"
    },
    {
      "inputs": [
        {
          "internalType": "address",
          "name": "_address",
          "type": "address"
        }
      ],
      "name": "allowedToWithdraw",
      "outputs": [
        {
          "internalType": "bool",
          "name": "",
          "type": "bool"
        }
      ],
      "stateMutability": "view",
      "type": "function"
    },
    {
      "inputs": [],
      "name": "requestTokens",
      "outputs": [],
      "stateMutability": "nonpayable",
      "type": "function"
    },
    {
      "inputs": [],
      "name": "tokenAmount",
      "outputs": [
        {
          "internalType": "uint256",
          "name": "",
          "type": "uint256"
        }
      ],
      "stateMutability": "view",
      "type": "function"
    },
    {
      "inputs": [],
      "name": "tokenInstance",
      "outputs": [
        {
          "internalType": "contract ERC20",
          "name": "",
          "type": "address"
        }
      ],
      "stateMutability": "view",
      "type": "function"
    },
    {
      "inputs": [],
      "name": "waitTime",
      "outputs": [
        {
          "internalType": "uint256",
          "name": "",
          "type": "uint256"
        }
      ],
      "stateMutability": "view",
      "type": "function"
    }
  ],
  "bytecode": "0x6080604052348015600f57600080fd5b50604051610371380380610371833981016040819052602c916062565b6001600160a01b038116603e57600080fd5b600080546001600160a01b0319166001600160a01b03929092169190911790556090565b600060208284031215607357600080fd5b81516001600160a01b0381168114608957600080fd5b9392505050565b6102d28061009f6000396000f3fe608060405234801561001057600080fd5b50600436106100575760003560e01c80632d291cad1461005c578063359cf2b714610084578063658030b31461008e578063ccca123b146100b9578063eec7faa1146100d0575b600080fd5b61006f61006a366004610223565b6100e1565b60405190151581526020015b60405180910390f35b61008c610137565b005b6000546100a1906001600160a01b031681565b6040516001600160a01b03909116815260200161007b565b6100c261070881565b60405190815260200161007b565b6100c269152d02c7e14af680000081565b6001600160a01b038116600090815260016020526040812054810361010857506001919050565b6001600160a01b038216600090815260016020526040902054421061012f57506001919050565b506000919050565b610140336100e1565b6101865760405162461bcd60e51b815260206004820152601360248201527215da5d1a191c985dd85b08191a5cd8589b1959606a1b604482015260640160405180910390fd5b60005460405163a9059cbb60e01b815233600482015269152d02c7e14af680000060248201526001600160a01b039091169063a9059cbb906044016020604051808303816000875af11580156101e0573d6000803e3d6000fd5b505050506040513d601f19601f820116820180604052508101906102049190610253565b5061021161070842610275565b33600090815260016020526040902055565b60006020828403121561023557600080fd5b81356001600160a01b038116811461024c57600080fd5b9392505050565b60006020828403121561026557600080fd5b8151801515811461024c57600080fd5b8082018082111561029657634e487b7160e01b600052601160045260246000fd5b9291505056fea26469706673582212209bdbfe6196aed5f7bdf997dc1f3d84a217cc31d191312159997f5a6864411e2e64736f6c634300081b0033",
  "linkReferences": {},
  "deployedLinkReferences": {}
}